{
  "_format": "hh-sol-artifact-1",
  "contractName": "MiPrimerNft",
  "sourceName": "contracts/NFT.sol",
  "abi": [
    {
      "inputs": [],
      "stateMutability": "nonpayable",
      "type": "constructor"
    },
    {
      "inputs": [],
      "name": "MINTER_ROLE",
      "outputs": [
        {
          "internalType": "bytes32",
          "name": "",
          "type": "bytes32"
        }
      ],
      "stateMutability": "view",
      "type": "function"
    },
    {
      "inputs": [],
      "name": "PAUSER_ROLE",
      "outputs": [
        {
          "internalType": "bytes32",
          "name": "",
          "type": "bytes32"
        }
      ],
      "stateMutability": "view",
      "type": "function"
    },
    {
      "inputs": [],
      "name": "pause",
      "outputs": [],
      "stateMutability": "nonpayable",
      "type": "function"
    },
    {
      "inputs": [
        {
          "internalType": "address",
          "name": "to",
          "type": "address"
        },
        {
          "internalType": "uint256",
          "name": "id",
          "type": "uint256"
        }
      ],
      "name": "safeMint",
      "outputs": [],
      "stateMutability": "nonpayable",
      "type": "function"
    },
    {
      "inputs": [],
      "name": "unpause",
      "outputs": [],
      "stateMutability": "nonpayable",
      "type": "function"
    }
  ],
  "bytecode": "0x608060405234801561001057600080fd5b5061025b806100206000396000f3fe608060405234801561001057600080fd5b50600436106100575760003560e01c80633f4ba83a1461005c5780638456cb5914610066578063a144819414610070578063d53913931461008c578063e63ab1e9146100aa575b600080fd5b6100646100c8565b005b61006e6100ca565b005b61008a600480360381019061008591906101b1565b6100cc565b005b6100946100d0565b6040516100a1919061020a565b60405180910390f35b6100b26100f4565b6040516100bf919061020a565b60405180910390f35b565b565b5050565b7f9f2df0fed2c77648de5860a4cc508cd0818c85b8b8a1ab4ceeef8d981c8956a681565b7f65d7a28e3265b37a6474929f336521b332c1681b933f6cb9f3376673440d862a81565b600080fd5b600073ffffffffffffffffffffffffffffffffffffffff82169050919050565b60006101488261011d565b9050919050565b6101588161013d565b811461016357600080fd5b50565b6000813590506101758161014f565b92915050565b6000819050919050565b61018e8161017b565b811461019957600080fd5b50565b6000813590506101ab81610185565b92915050565b600080604083850312156101c8576101c7610118565b5b60006101d685828601610166565b92505060206101e78582860161019c565b9150509250929050565b6000819050919050565b610204816101f1565b82525050565b600060208201905061021f60008301846101fb565b9291505056fea2646970667358221220074e3f83185854deb1608d0605f9a0836d3698bc47c2ea8c16af4fbf82f2171f64736f6c63430008090033",
  "linkReferences": {},
  "deployedLinkReferences": {}
}