{
  "_format": "hh-sol-artifact-1",
  "contractName": "DigitalBadge",
  "sourceName": "contracts/DigitalBadge.sol",
  "abi": [
    {
      "anonymous": false,
      "inputs": [
        {
          "indexed": false,
          "internalType": "address",
          "name": "previousAdmin",
          "type": "address"
        },
        {
          "indexed": false,
          "internalType": "address",
          "name": "newAdmin",
          "type": "address"
        }
      ],
      "name": "AdminChanged",
      "type": "event"
    },
    {
      "anonymous": false,
      "inputs": [
        {
          "indexed": true,
          "internalType": "address",
          "name": "owner",
          "type": "address"
        },
        {
          "indexed": true,
          "internalType": "address",
          "name": "approved",
          "type": "address"
        },
        {
          "indexed": true,
          "internalType": "uint256",
          "name": "tokenId",
          "type": "uint256"
        }
      ],
      "name": "Approval",
      "type": "event"
    },
    {
      "anonymous": false,
      "inputs": [
        {
          "indexed": true,
          "internalType": "address",
          "name": "owner",
          "type": "address"
        },
        {
          "indexed": true,
          "internalType": "address",
          "name": "operator",
          "type": "address"
        },
        {
          "indexed": false,
          "internalType": "bool",
          "name": "approved",
          "type": "bool"
        }
      ],
      "name": "ApprovalForAll",
      "type": "event"
    },
    {
      "anonymous": false,
      "inputs": [
        {
          "indexed": false,
          "internalType": "uint256",
          "name": "_fromTokenId",
          "type": "uint256"
        },
        {
          "indexed": false,
          "internalType": "uint256",
          "name": "_toTokenId",
          "type": "uint256"
        }
      ],
      "name": "BatchMetadataUpdate",
      "type": "event"
    },
    {
      "anonymous": false,
      "inputs": [
        {
          "indexed": true,
          "internalType": "address",
          "name": "beacon",
          "type": "address"
        }
      ],
      "name": "BeaconUpgraded",
      "type": "event"
    },
    {
      "anonymous": false,
      "inputs": [
        {
          "indexed": false,
          "internalType": "uint8",
          "name": "version",
          "type": "uint8"
        }
      ],
      "name": "Initialized",
      "type": "event"
    },
    {
      "anonymous": false,
      "inputs": [
        {
          "indexed": false,
          "internalType": "uint256",
          "name": "_tokenId",
          "type": "uint256"
        }
      ],
      "name": "MetadataUpdate",
      "type": "event"
    },
    {
      "anonymous": false,
      "inputs": [
        {
          "indexed": true,
          "internalType": "bytes32",
          "name": "role",
          "type": "bytes32"
        },
        {
          "indexed": true,
          "internalType": "bytes32",
          "name": "previousAdminRole",
          "type": "bytes32"
        },
        {
          "indexed": true,
          "internalType": "bytes32",
          "name": "newAdminRole",
          "type": "bytes32"
        }
      ],
      "name": "RoleAdminChanged",
      "type": "event"
    },
    {
      "anonymous": false,
      "inputs": [
        {
          "indexed": true,
          "internalType": "bytes32",
          "name": "role",
          "type": "bytes32"
        },
        {
          "indexed": true,
          "internalType": "address",
          "name": "account",
          "type": "address"
        },
        {
          "indexed": true,
          "internalType": "address",
          "name": "sender",
          "type": "address"
        }
      ],
      "name": "RoleGranted",
      "type": "event"
    },
    {
      "anonymous": false,
      "inputs": [
        {
          "indexed": true,
          "internalType": "bytes32",
          "name": "role",
          "type": "bytes32"
        },
        {
          "indexed": true,
          "internalType": "address",
          "name": "account",
          "type": "address"
        },
        {
          "indexed": true,
          "internalType": "address",
          "name": "sender",
          "type": "address"
        }
      ],
      "name": "RoleRevoked",
      "type": "event"
    },
    {
      "anonymous": false,
      "inputs": [
        {
          "indexed": true,
          "internalType": "address",
          "name": "from",
          "type": "address"
        },
        {
          "indexed": true,
          "internalType": "address",
          "name": "to",
          "type": "address"
        },
        {
          "indexed": true,
          "internalType": "uint256",
          "name": "tokenId",
          "type": "uint256"
        }
      ],
      "name": "Transfer",
      "type": "event"
    },
    {
      "anonymous": false,
      "inputs": [
        {
          "indexed": true,
          "internalType": "address",
          "name": "implementation",
          "type": "address"
        }
      ],
      "name": "Upgraded",
      "type": "event"
    },
    {
      "inputs": [],
      "name": "DEFAULT_ADMIN_ROLE",
      "outputs": [
        {
          "internalType": "bytes32",
          "name": "",
          "type": "bytes32"
        }
      ],
      "stateMutability": "view",
      "type": "function"
    },
    {
      "inputs": [],
      "name": "MINTER_ROLE",
      "outputs": [
        {
          "internalType": "bytes32",
          "name": "",
          "type": "bytes32"
        }
      ],
      "stateMutability": "view",
      "type": "function"
    },
    {
      "inputs": [],
      "name": "UPGRADER_ROLE",
      "outputs": [
        {
          "internalType": "bytes32",
          "name": "",
          "type": "bytes32"
        }
      ],
      "stateMutability": "view",
      "type": "function"
    },
    {
      "inputs": [],
      "name": "VERIFIER_ROLE",
      "outputs": [
        {
          "internalType": "bytes32",
          "name": "",
          "type": "bytes32"
        }
      ],
      "stateMutability": "view",
      "type": "function"
    },
    {
      "inputs": [
        {
          "internalType": "address",
          "name": "to",
          "type": "address"
        },
        {
          "internalType": "uint256",
          "name": "tokenId",
          "type": "uint256"
        }
      ],
      "name": "approve",
      "outputs": [],
      "stateMutability": "nonpayable",
      "type": "function"
    },
    {
      "inputs": [
        {
          "internalType": "address",
          "name": "owner",
          "type": "address"
        }
      ],
      "name": "balanceOf",
      "outputs": [
        {
          "internalType": "uint256",
          "name": "",
          "type": "uint256"
        }
      ],
      "stateMutability": "view",
      "type": "function"
    },
    {
      "inputs": [
        {
          "internalType": "uint256",
          "name": "tokenId",
          "type": "uint256"
        }
      ],
      "name": "getApproved",
      "outputs": [
        {
          "internalType": "address",
          "name": "",
          "type": "address"
        }
      ],
      "stateMutability": "view",
      "type": "function"
    },
    {
      "inputs": [
        {
          "internalType": "bytes32",
          "name": "role",
          "type": "bytes32"
        }
      ],
      "name": "getRoleAdmin",
      "outputs": [
        {
          "internalType": "bytes32",
          "name": "",
          "type": "bytes32"
        }
      ],
      "stateMutability": "view",
      "type": "function"
    },
    {
      "inputs": [
        {
          "internalType": "bytes32",
          "name": "role",
          "type": "bytes32"
        },
        {
          "internalType": "address",
          "name": "account",
          "type": "address"
        }
      ],
      "name": "grantRole",
      "outputs": [],
      "stateMutability": "nonpayable",
      "type": "function"
    },
    {
      "inputs": [
        {
          "internalType": "bytes32",
          "name": "role",
          "type": "bytes32"
        },
        {
          "internalType": "address",
          "name": "account",
          "type": "address"
        }
      ],
      "name": "hasRole",
      "outputs": [
        {
          "internalType": "bool",
          "name": "",
          "type": "bool"
        }
      ],
      "stateMutability": "view",
      "type": "function"
    },
    {
      "inputs": [
        {
          "internalType": "string",
          "name": "_name",
          "type": "string"
        },
        {
          "internalType": "string",
          "name": "_symbol",
          "type": "string"
        }
      ],
      "name": "initialize",
      "outputs": [],
      "stateMutability": "nonpayable",
      "type": "function"
    },
    {
      "inputs": [
        {
          "internalType": "address",
          "name": "owner",
          "type": "address"
        },
        {
          "internalType": "address",
          "name": "operator",
          "type": "address"
        }
      ],
      "name": "isApprovedForAll",
      "outputs": [
        {
          "internalType": "bool",
          "name": "",
          "type": "bool"
        }
      ],
      "stateMutability": "view",
      "type": "function"
    },
    {
      "inputs": [],
      "name": "name",
      "outputs": [
        {
          "internalType": "string",
          "name": "",
          "type": "string"
        }
      ],
      "stateMutability": "view",
      "type": "function"
    },
    {
      "inputs": [
        {
          "internalType": "uint256",
          "name": "tokenId",
          "type": "uint256"
        }
      ],
      "name": "ownerOf",
      "outputs": [
        {
          "internalType": "address",
          "name": "",
          "type": "address"
        }
      ],
      "stateMutability": "view",
      "type": "function"
    },
    {
      "inputs": [],
      "name": "proxiableUUID",
      "outputs": [
        {
          "internalType": "bytes32",
          "name": "",
          "type": "bytes32"
        }
      ],
      "stateMutability": "view",
      "type": "function"
    },
    {
      "inputs": [
        {
          "internalType": "bytes32",
          "name": "role",
          "type": "bytes32"
        },
        {
          "internalType": "address",
          "name": "account",
          "type": "address"
        }
      ],
      "name": "renounceRole",
      "outputs": [],
      "stateMutability": "nonpayable",
      "type": "function"
    },
    {
      "inputs": [
        {
          "internalType": "bytes32",
          "name": "role",
          "type": "bytes32"
        },
        {
          "internalType": "address",
          "name": "account",
          "type": "address"
        }
      ],
      "name": "revokeRole",
      "outputs": [],
      "stateMutability": "nonpayable",
      "type": "function"
    },
    {
      "inputs": [
        {
          "internalType": "address",
          "name": "to",
          "type": "address"
        },
        {
          "internalType": "string",
          "name": "uri",
          "type": "string"
        },
        {
          "internalType": "bool",
          "name": "_isTransferable",
          "type": "bool"
        }
      ],
      "name": "safeMint",
      "outputs": [],
      "stateMutability": "nonpayable",
      "type": "function"
    },
    {
      "inputs": [
        {
          "internalType": "address",
          "name": "from",
          "type": "address"
        },
        {
          "internalType": "address",
          "name": "to",
          "type": "address"
        },
        {
          "internalType": "uint256",
          "name": "tokenId",
          "type": "uint256"
        }
      ],
      "name": "safeTransferFrom",
      "outputs": [],
      "stateMutability": "nonpayable",
      "type": "function"
    },
    {
      "inputs": [
        {
          "internalType": "address",
          "name": "from",
          "type": "address"
        },
        {
          "internalType": "address",
          "name": "to",
          "type": "address"
        },
        {
          "internalType": "uint256",
          "name": "tokenId",
          "type": "uint256"
        },
        {
          "internalType": "bytes",
          "name": "data",
          "type": "bytes"
        }
      ],
      "name": "safeTransferFrom",
      "outputs": [],
      "stateMutability": "nonpayable",
      "type": "function"
    },
    {
      "inputs": [
        {
          "internalType": "address",
          "name": "operator",
          "type": "address"
        },
        {
          "internalType": "bool",
          "name": "approved",
          "type": "bool"
        }
      ],
      "name": "setApprovalForAll",
      "outputs": [],
      "stateMutability": "nonpayable",
      "type": "function"
    },
    {
      "inputs": [
        {
          "internalType": "bytes4",
          "name": "interfaceId",
          "type": "bytes4"
        }
      ],
      "name": "supportsInterface",
      "outputs": [
        {
          "internalType": "bool",
          "name": "",
          "type": "bool"
        }
      ],
      "stateMutability": "view",
      "type": "function"
    },
    {
      "inputs": [],
      "name": "symbol",
      "outputs": [
        {
          "internalType": "string",
          "name": "",
          "type": "string"
        }
      ],
      "stateMutability": "view",
      "type": "function"
    },
    {
      "inputs": [
        {
          "internalType": "uint256",
          "name": "index",
          "type": "uint256"
        }
      ],
      "name": "tokenByIndex",
      "outputs": [
        {
          "internalType": "uint256",
          "name": "",
          "type": "uint256"
        }
      ],
      "stateMutability": "view",
      "type": "function"
    },
    {
      "inputs": [
        {
          "internalType": "address",
          "name": "owner",
          "type": "address"
        },
        {
          "internalType": "uint256",
          "name": "index",
          "type": "uint256"
        }
      ],
      "name": "tokenOfOwnerByIndex",
      "outputs": [
        {
          "internalType": "uint256",
          "name": "",
          "type": "uint256"
        }
      ],
      "stateMutability": "view",
      "type": "function"
    },
    {
      "inputs": [
        {
          "internalType": "uint256",
          "name": "tokenId",
          "type": "uint256"
        }
      ],
      "name": "tokenURI",
      "outputs": [
        {
          "internalType": "string",
          "name": "",
          "type": "string"
        }
      ],
      "stateMutability": "view",
      "type": "function"
    },
    {
      "inputs": [],
      "name": "totalSupply",
      "outputs": [
        {
          "internalType": "uint256",
          "name": "",
          "type": "uint256"
        }
      ],
      "stateMutability": "view",
      "type": "function"
    },
    {
      "inputs": [
        {
          "internalType": "address",
          "name": "from",
          "type": "address"
        },
        {
          "internalType": "address",
          "name": "to",
          "type": "address"
        },
        {
          "internalType": "uint256",
          "name": "tokenId",
          "type": "uint256"
        }
      ],
      "name": "transferFrom",
      "outputs": [],
      "stateMutability": "nonpayable",
      "type": "function"
    },
    {
      "inputs": [
        {
          "internalType": "address",
          "name": "newImplementation",
          "type": "address"
        }
      ],
      "name": "upgradeTo",
      "outputs": [],
      "stateMutability": "nonpayable",
      "type": "function"
    },
    {
      "inputs": [
        {
          "internalType": "address",
          "name": "newImplementation",
          "type": "address"
        },
        {
          "internalType": "bytes",
          "name": "data",
          "type": "bytes"
        }
      ],
      "name": "upgradeToAndCall",
      "outputs": [],
      "stateMutability": "payable",
      "type": "function"
    }
  ],
  "bytecode": "0x60a06040523073ffffffffffffffffffffffffffffffffffffffff1660809073ffffffffffffffffffffffffffffffffffffffff1681525034801561004357600080fd5b506080516156306200007c60003960008181610bd001528181610c5f01528181610f8d0152818161101c015261113d01526156306000f3fe6080604052600436106101cd5760003560e01c80634f6ccce7116100f7578063a22cb46511610095578063d547741f11610064578063d547741f146106af578063e7705db6146106d8578063e985e9c514610703578063f72c0d8b14610740576101cd565b8063a22cb465146105f5578063b88d4fde1461061e578063c87b56dd14610647578063d539139314610684576101cd565b806370a08231116100d157806370a082311461052557806391d148541461056257806395d89b411461059f578063a217fddf146105ca576101cd565b80634f6ccce71461048057806352d1902d146104bd5780636352211e146104e8576101cd565b8063295a2d4c1161016f5780633659cfe61161013e5780633659cfe6146103e957806342842e0e146104125780634cd88b761461043b5780634f1ef28614610464576101cd565b8063295a2d4c146103315780632f2ff15d1461035a5780632f745c591461038357806336568abe146103c0576101cd565b8063095ea7b3116101ab578063095ea7b31461027757806318160ddd146102a057806323b872dd146102cb578063248a9ca3146102f4576101cd565b806301ffc9a7146101d257806306fdde031461020f578063081812fc1461023a575b600080fd5b3480156101de57600080fd5b506101f960048036038101906101f49190613a07565b61076b565b6040516102069190613a4f565b60405180910390f35b34801561021b57600080fd5b5061022461077d565b6040516102319190613b03565b60405180910390f35b34801561024657600080fd5b50610261600480360381019061025c9190613b5b565b61080f565b60405161026e9190613bc9565b60405180910390f35b34801561028357600080fd5b5061029e60048036038101906102999190613c10565b610855565b005b3480156102ac57600080fd5b506102b561096d565b6040516102c29190613c5f565b60405180910390f35b3480156102d757600080fd5b506102f260048036038101906102ed9190613c7a565b61097a565b005b34801561030057600080fd5b5061031b60048036038101906103169190613d03565b6109da565b6040516103289190613d3f565b60405180910390f35b34801561033d57600080fd5b5061035860048036038101906103539190613ebb565b6109fa565b005b34801561036657600080fd5b50610381600480360381019061037c9190613f2a565b610a85565b005b34801561038f57600080fd5b506103aa60048036038101906103a59190613c10565b610aa6565b6040516103b79190613c5f565b60405180910390f35b3480156103cc57600080fd5b506103e760048036038101906103e29190613f2a565b610b4b565b005b3480156103f557600080fd5b50610410600480360381019061040b9190613f6a565b610bce565b005b34801561041e57600080fd5b5061043960048036038101906104349190613c7a565b610d57565b005b34801561044757600080fd5b50610462600480360381019061045d9190613f97565b610dc8565b005b61047e600480360381019061047991906140b0565b610f8b565b005b34801561048c57600080fd5b506104a760048036038101906104a29190613b5b565b6110c8565b6040516104b49190613c5f565b60405180910390f35b3480156104c957600080fd5b506104d2611139565b6040516104df9190613d3f565b60405180910390f35b3480156104f457600080fd5b5061050f600480360381019061050a9190613b5b565b6111f2565b60405161051c9190613bc9565b60405180910390f35b34801561053157600080fd5b5061054c60048036038101906105479190613f6a565b611279565b6040516105599190613c5f565b60405180910390f35b34801561056e57600080fd5b5061058960048036038101906105849190613f2a565b611331565b6040516105969190613a4f565b60405180910390f35b3480156105ab57600080fd5b506105b461139c565b6040516105c19190613b03565b60405180910390f35b3480156105d657600080fd5b506105df61142e565b6040516105ec9190613d3f565b60405180910390f35b34801561060157600080fd5b5061061c6004803603810190610617919061410c565b611435565b005b34801561062a57600080fd5b506106456004803603810190610640919061414c565b61144b565b005b34801561065357600080fd5b5061066e60048036038101906106699190613b5b565b6114ad565b60405161067b9190613b03565b60405180910390f35b34801561069057600080fd5b506106996114bf565b6040516106a69190613d3f565b60405180910390f35b3480156106bb57600080fd5b506106d660048036038101906106d19190613f2a565b6114e3565b005b3480156106e457600080fd5b506106ed611504565b6040516106fa9190613d3f565b60405180910390f35b34801561070f57600080fd5b5061072a600480360381019061072591906141cf565b611528565b6040516107379190613a4f565b60405180910390f35b34801561074c57600080fd5b506107556115bc565b6040516107629190613d3f565b60405180910390f35b6000610776826115e0565b9050919050565b60606065805461078c9061423e565b80601f01602080910402602001604051908101604052809291908181526020018280546107b89061423e565b80156108055780601f106107da57610100808354040283529160200191610805565b820191906000526020600020905b8154815290600101906020018083116107e857829003601f168201915b5050505050905090565b600061081a8261165a565b6069600083815260200190815260200160002060009054906101000a900473ffffffffffffffffffffffffffffffffffffffff169050919050565b6000610860826111f2565b90508073ffffffffffffffffffffffffffffffffffffffff168373ffffffffffffffffffffffffffffffffffffffff1614156108d1576040517f08c379a00000000000000000000000000000000000000000000000000000000081526004016108c8906142e2565b60405180910390fd5b8073ffffffffffffffffffffffffffffffffffffffff166108f06116a5565b73ffffffffffffffffffffffffffffffffffffffff16148061091f575061091e816109196116a5565b611528565b5b61095e576040517f08c379a000000000000000000000000000000000000000000000000000000000815260040161095590614374565b60405180910390fd5b61096883836116ad565b505050565b6000609980549050905090565b61098b6109856116a5565b82611766565b6109ca576040517f08c379a00000000000000000000000000000000000000000000000000000000081526004016109c190614406565b60405180910390fd5b6109d58383836117fb565b505050565b600060fb6000838152602001908152602001600020600101549050919050565b7f9f2df0fed2c77648de5860a4cc508cd0818c85b8b8a1ab4ceeef8d981c8956a6610a2481611af5565b6000610a31610191611b09565b9050610a3e610191611b17565b82610192600083815260200190815260200160002060006101000a81548160ff021916908315150217905550610a748582611b2d565b610a7e8185611b4b565b5050505050565b610a8e826109da565b610a9781611af5565b610aa18383611bf6565b505050565b6000610ab183611279565b8210610af2576040517f08c379a0000000000000000000000000000000000000000000000000000000008152600401610ae990614498565b60405180910390fd5b609760008473ffffffffffffffffffffffffffffffffffffffff1673ffffffffffffffffffffffffffffffffffffffff168152602001908152602001600020600083815260200190815260200160002054905092915050565b610b536116a5565b73ffffffffffffffffffffffffffffffffffffffff168173ffffffffffffffffffffffffffffffffffffffff1614610bc0576040517f08c379a0000000000000000000000000000000000000000000000000000000008152600401610bb79061452a565b60405180910390fd5b610bca8282611cd7565b5050565b7f000000000000000000000000000000000000000000000000000000000000000073ffffffffffffffffffffffffffffffffffffffff163073ffffffffffffffffffffffffffffffffffffffff161415610c5d576040517f08c379a0000000000000000000000000000000000000000000000000000000008152600401610c54906145bc565b60405180910390fd5b7f000000000000000000000000000000000000000000000000000000000000000073ffffffffffffffffffffffffffffffffffffffff16610c9c611db9565b73ffffffffffffffffffffffffffffffffffffffff1614610cf2576040517f08c379a0000000000000000000000000000000000000000000000000000000008152600401610ce99061464e565b60405180910390fd5b610cfb81611e10565b610d5481600067ffffffffffffffff811115610d1a57610d19613d64565b5b6040519080825280601f01601f191660200182016040528015610d4c5781602001600182028036833780820191505090505b506000611e3e565b50565b610192600082815260200190815260200160002060009054906101000a900460ff16610db8576040517f08c379a0000000000000000000000000000000000000000000000000000000008152600401610daf906146e0565b60405180910390fd5b610dc3838383611fbb565b505050565b60008060019054906101000a900460ff16159050808015610df95750600160008054906101000a900460ff1660ff16105b80610e265750610e0830611fdb565b158015610e255750600160008054906101000a900460ff1660ff16145b5b610e65576040517f08c379a0000000000000000000000000000000000000000000000000000000008152600401610e5c90614772565b60405180910390fd5b60016000806101000a81548160ff021916908360ff1602179055508015610ea2576001600060016101000a81548160ff0219169083151502179055505b610eac8383611ffe565b610eb461205b565b610ebc6120ac565b610ec46120fd565b610ecc61214e565b610ed96000801b33611bf6565b610f037f9f2df0fed2c77648de5860a4cc508cd0818c85b8b8a1ab4ceeef8d981c8956a633611bf6565b610f2d7f189ab7a9244df0848122154315af71fe140f3db0fe014031783b0946b8c9d2e333611bf6565b8015610f865760008060016101000a81548160ff0219169083151502179055507f7f26b83ff96e1f2b6a682f133852f6798a09c465da95921460cefb38474024986001604051610f7d91906147e4565b60405180910390a15b505050565b7f000000000000000000000000000000000000000000000000000000000000000073ffffffffffffffffffffffffffffffffffffffff163073ffffffffffffffffffffffffffffffffffffffff16141561101a576040517f08c379a0000000000000000000000000000000000000000000000000000000008152600401611011906145bc565b60405180910390fd5b7f000000000000000000000000000000000000000000000000000000000000000073ffffffffffffffffffffffffffffffffffffffff16611059611db9565b73ffffffffffffffffffffffffffffffffffffffff16146110af576040517f08c379a00000000000000000000000000000000000000000000000000000000081526004016110a69061464e565b60405180910390fd5b6110b882611e10565b6110c482826001611e3e565b5050565b60006110d261096d565b8210611113576040517f08c379a000000000000000000000000000000000000000000000000000000000815260040161110a90614871565b60405180910390fd5b6099828154811061112757611126614891565b5b90600052602060002001549050919050565b60007f000000000000000000000000000000000000000000000000000000000000000073ffffffffffffffffffffffffffffffffffffffff163073ffffffffffffffffffffffffffffffffffffffff16146111c9576040517f08c379a00000000000000000000000000000000000000000000000000000000081526004016111c090614932565b60405180910390fd5b7f360894a13ba1a3210667c828492db98dca3e2076cc3735a920a3ca505d382bbc60001b905090565b6000806111fe8361219f565b9050600073ffffffffffffffffffffffffffffffffffffffff168173ffffffffffffffffffffffffffffffffffffffff161415611270576040517f08c379a00000000000000000000000000000000000000000000000000000000081526004016112679061499e565b60405180910390fd5b80915050919050565b60008073ffffffffffffffffffffffffffffffffffffffff168273ffffffffffffffffffffffffffffffffffffffff1614156112ea576040517f08c379a00000000000000000000000000000000000000000000000000000000081526004016112e190614a30565b60405180910390fd5b606860008373ffffffffffffffffffffffffffffffffffffffff1673ffffffffffffffffffffffffffffffffffffffff168152602001908152602001600020549050919050565b600060fb600084815260200190815260200160002060000160008373ffffffffffffffffffffffffffffffffffffffff1673ffffffffffffffffffffffffffffffffffffffff16815260200190815260200160002060009054906101000a900460ff16905092915050565b6060606680546113ab9061423e565b80601f01602080910402602001604051908101604052809291908181526020018280546113d79061423e565b80156114245780601f106113f957610100808354040283529160200191611424565b820191906000526020600020905b81548152906001019060200180831161140757829003601f168201915b5050505050905090565b6000801b81565b6114476114406116a5565b83836121dc565b5050565b61145c6114566116a5565b83611766565b61149b576040517f08c379a000000000000000000000000000000000000000000000000000000000815260040161149290614406565b60405180910390fd5b6114a784848484612349565b50505050565b60606114b8826123a5565b9050919050565b7f9f2df0fed2c77648de5860a4cc508cd0818c85b8b8a1ab4ceeef8d981c8956a681565b6114ec826109da565b6114f581611af5565b6114ff8383611cd7565b505050565b7f0ce23c3e399818cfee81a7ab0880f714e53d7672b08df0fa62f2843416e1ea0981565b6000606a60008473ffffffffffffffffffffffffffffffffffffffff1673ffffffffffffffffffffffffffffffffffffffff16815260200190815260200160002060008373ffffffffffffffffffffffffffffffffffffffff1673ffffffffffffffffffffffffffffffffffffffff16815260200190815260200160002060009054906101000a900460ff16905092915050565b7f189ab7a9244df0848122154315af71fe140f3db0fe014031783b0946b8c9d2e381565b60007f7965db0b000000000000000000000000000000000000000000000000000000007bffffffffffffffffffffffffffffffffffffffffffffffffffffffff1916827bffffffffffffffffffffffffffffffffffffffffffffffffffffffff191614806116535750611652826124b8565b5b9050919050565b61166381612519565b6116a2576040517f08c379a00000000000000000000000000000000000000000000000000000000081526004016116999061499e565b60405180910390fd5b50565b600033905090565b816069600083815260200190815260200160002060006101000a81548173ffffffffffffffffffffffffffffffffffffffff021916908373ffffffffffffffffffffffffffffffffffffffff160217905550808273ffffffffffffffffffffffffffffffffffffffff16611720836111f2565b73ffffffffffffffffffffffffffffffffffffffff167f8c5be1e5ebec7d5bd14f71427d1e84f3dd0314c0f7b2291e5b200ac8c7c3b92560405160405180910390a45050565b600080611772836111f2565b90508073ffffffffffffffffffffffffffffffffffffffff168473ffffffffffffffffffffffffffffffffffffffff1614806117b457506117b38185611528565b5b806117f257508373ffffffffffffffffffffffffffffffffffffffff166117da8461080f565b73ffffffffffffffffffffffffffffffffffffffff16145b91505092915050565b8273ffffffffffffffffffffffffffffffffffffffff1661181b826111f2565b73ffffffffffffffffffffffffffffffffffffffff1614611871576040517f08c379a000000000000000000000000000000000000000000000000000000000815260040161186890614ac2565b60405180910390fd5b600073ffffffffffffffffffffffffffffffffffffffff168273ffffffffffffffffffffffffffffffffffffffff1614156118e1576040517f08c379a00000000000000000000000000000000000000000000000000000000081526004016118d890614b54565b60405180910390fd5b6118ee838383600161255a565b8273ffffffffffffffffffffffffffffffffffffffff1661190e826111f2565b73ffffffffffffffffffffffffffffffffffffffff1614611964576040517f08c379a000000000000000000000000000000000000000000000000000000000815260040161195b90614ac2565b60405180910390fd5b6069600082815260200190815260200160002060006101000a81549073ffffffffffffffffffffffffffffffffffffffff02191690556001606860008573ffffffffffffffffffffffffffffffffffffffff1673ffffffffffffffffffffffffffffffffffffffff168152602001908152602001600020600082825403925050819055506001606860008473ffffffffffffffffffffffffffffffffffffffff1673ffffffffffffffffffffffffffffffffffffffff16815260200190815260200160002060008282540192505081905550816067600083815260200190815260200160002060006101000a81548173ffffffffffffffffffffffffffffffffffffffff021916908373ffffffffffffffffffffffffffffffffffffffff160217905550808273ffffffffffffffffffffffffffffffffffffffff168473ffffffffffffffffffffffffffffffffffffffff167fddf252ad1be2c89b69c2b068fc378daa952ba7f163c4a11628f55a4df523b3ef60405160405180910390a4611af083838360016125d6565b505050565b611b0681611b016116a5565b6125dc565b50565b600081600001549050919050565b6001816000016000828254019250508190555050565b611b47828260405180602001604052806000815250612661565b5050565b611b5482612519565b611b93576040517f08c379a0000000000000000000000000000000000000000000000000000000008152600401611b8a90614be6565b60405180910390fd5b8060c960008481526020019081526020016000209080519060200190611bba9291906138f8565b507ff8e1a15aba9398e019f0b49df1a4fde98ee17ae345cb5f6b5e2c27f5033e8ce782604051611bea9190613c5f565b60405180910390a15050565b611c008282611331565b611cd357600160fb600084815260200190815260200160002060000160008373ffffffffffffffffffffffffffffffffffffffff1673ffffffffffffffffffffffffffffffffffffffff16815260200190815260200160002060006101000a81548160ff021916908315150217905550611c786116a5565b73ffffffffffffffffffffffffffffffffffffffff168173ffffffffffffffffffffffffffffffffffffffff16837f2f8788117e7eff1d82e926ec794901d17c78024a50270940304540a733656f0d60405160405180910390a45b5050565b611ce18282611331565b15611db557600060fb600084815260200190815260200160002060000160008373ffffffffffffffffffffffffffffffffffffffff1673ffffffffffffffffffffffffffffffffffffffff16815260200190815260200160002060006101000a81548160ff021916908315150217905550611d5a6116a5565b73ffffffffffffffffffffffffffffffffffffffff168173ffffffffffffffffffffffffffffffffffffffff16837ff6391f5c32d9c69d2a47ea670b442974b53935d1edc7fd64eb21e047a839171b60405160405180910390a45b5050565b6000611de77f360894a13ba1a3210667c828492db98dca3e2076cc3735a920a3ca505d382bbc60001b6126bc565b60000160009054906101000a900473ffffffffffffffffffffffffffffffffffffffff16905090565b7f189ab7a9244df0848122154315af71fe140f3db0fe014031783b0946b8c9d2e3611e3a81611af5565b5050565b611e6a7f4910fdfa16fed3260ed0e7147f7cc6da11a60208b5b9406d12a635614ffd914360001b6126c6565b60000160009054906101000a900460ff1615611e8e57611e89836126d0565b611fb6565b8273ffffffffffffffffffffffffffffffffffffffff166352d1902d6040518163ffffffff1660e01b815260040160206040518083038186803b158015611ed457600080fd5b505afa925050508015611f0557506040513d601f19601f82011682018060405250810190611f029190614c1b565b60015b611f44576040517f08c379a0000000000000000000000000000000000000000000000000000000008152600401611f3b90614cba565b60405180910390fd5b7f360894a13ba1a3210667c828492db98dca3e2076cc3735a920a3ca505d382bbc60001b8114611fa9576040517f08c379a0000000000000000000000000000000000000000000000000000000008152600401611fa090614d4c565b60405180910390fd5b50611fb5838383612789565b5b505050565b611fd68383836040518060200160405280600081525061144b565b505050565b6000808273ffffffffffffffffffffffffffffffffffffffff163b119050919050565b600060019054906101000a900460ff1661204d576040517f08c379a000000000000000000000000000000000000000000000000000000000815260040161204490614dde565b60405180910390fd5b61205782826127b5565b5050565b600060019054906101000a900460ff166120aa576040517f08c379a00000000000000000000000000000000000000000000000000000000081526004016120a190614dde565b60405180910390fd5b565b600060019054906101000a900460ff166120fb576040517f08c379a00000000000000000000000000000000000000000000000000000000081526004016120f290614dde565b60405180910390fd5b565b600060019054906101000a900460ff1661214c576040517f08c379a000000000000000000000000000000000000000000000000000000000815260040161214390614dde565b60405180910390fd5b565b600060019054906101000a900460ff1661219d576040517f08c379a000000000000000000000000000000000000000000000000000000000815260040161219490614dde565b60405180910390fd5b565b60006067600083815260200190815260200160002060009054906101000a900473ffffffffffffffffffffffffffffffffffffffff169050919050565b8173ffffffffffffffffffffffffffffffffffffffff168373ffffffffffffffffffffffffffffffffffffffff16141561224b576040517f08c379a000000000000000000000000000000000000000000000000000000000815260040161224290614e4a565b60405180910390fd5b80606a60008573ffffffffffffffffffffffffffffffffffffffff1673ffffffffffffffffffffffffffffffffffffffff16815260200190815260200160002060008473ffffffffffffffffffffffffffffffffffffffff1673ffffffffffffffffffffffffffffffffffffffff16815260200190815260200160002060006101000a81548160ff0219169083151502179055508173ffffffffffffffffffffffffffffffffffffffff168373ffffffffffffffffffffffffffffffffffffffff167f17307eab39ab6107e8899845ad3d59bd9653f200f220920489ca2b5937696c318360405161233c9190613a4f565b60405180910390a3505050565b6123548484846117fb565b61236084848484612836565b61239f576040517f08c379a000000000000000000000000000000000000000000000000000000000815260040161239690614edc565b60405180910390fd5b50505050565b60606123b08261165a565b600060c9600084815260200190815260200160002080546123d09061423e565b80601f01602080910402602001604051908101604052809291908181526020018280546123fc9061423e565b80156124495780601f1061241e57610100808354040283529160200191612449565b820191906000526020600020905b81548152906001019060200180831161242c57829003601f168201915b50505050509050600061245a6129cd565b90506000815114156124705781925050506124b3565b6000825111156124a557808260405160200161248d929190614f38565b604051602081830303815290604052925050506124b3565b6124ae846129e4565b925050505b919050565b6000634906490660e01b7bffffffffffffffffffffffffffffffffffffffffffffffffffffffff1916827bffffffffffffffffffffffffffffffffffffffffffffffffffffffff19161480612512575061251182612a4c565b5b9050919050565b60008073ffffffffffffffffffffffffffffffffffffffff1661253b8361219f565b73ffffffffffffffffffffffffffffffffffffffff1614159050919050565b600073ffffffffffffffffffffffffffffffffffffffff168473ffffffffffffffffffffffffffffffffffffffff161415806125c35750600073ffffffffffffffffffffffffffffffffffffffff168373ffffffffffffffffffffffffffffffffffffffff1614155b506125d084848484612ac6565b50505050565b50505050565b6125e68282611331565b61265d576125f381612c26565b6126018360001c6020612c53565b604051602001612612929190614ff4565b6040516020818303038152906040526040517f08c379a00000000000000000000000000000000000000000000000000000000081526004016126549190613b03565b60405180910390fd5b5050565b61266b8383612e8f565b6126786000848484612836565b6126b7576040517f08c379a00000000000000000000000000000000000000000000000000000000081526004016126ae90614edc565b60405180910390fd5b505050565b6000819050919050565b6000819050919050565b6126d981611fdb565b612718576040517f08c379a000000000000000000000000000000000000000000000000000000000815260040161270f906150a0565b60405180910390fd5b806127457f360894a13ba1a3210667c828492db98dca3e2076cc3735a920a3ca505d382bbc60001b6126bc565b60000160006101000a81548173ffffffffffffffffffffffffffffffffffffffff021916908373ffffffffffffffffffffffffffffffffffffffff16021790555050565b612792836130ad565b60008251118061279f5750805b156127b0576127ae83836130fc565b505b505050565b600060019054906101000a900460ff16612804576040517f08c379a00000000000000000000000000000000000000000000000000000000081526004016127fb90614dde565b60405180910390fd5b816065908051906020019061281a9291906138f8565b5080606690805190602001906128319291906138f8565b505050565b60006128578473ffffffffffffffffffffffffffffffffffffffff16611fdb565b156129c0578373ffffffffffffffffffffffffffffffffffffffff1663150b7a026128806116a5565b8786866040518563ffffffff1660e01b81526004016128a29493929190615115565b602060405180830381600087803b1580156128bc57600080fd5b505af19250505080156128ed57506040513d601f19601f820116820180604052508101906128ea9190615176565b60015b612970573d806000811461291d576040519150601f19603f3d011682016040523d82523d6000602084013e612922565b606091505b50600081511415612968576040517f08c379a000000000000000000000000000000000000000000000000000000000815260040161295f90614edc565b60405180910390fd5b805181602001fd5b63150b7a0260e01b7bffffffffffffffffffffffffffffffffffffffffffffffffffffffff1916817bffffffffffffffffffffffffffffffffffffffffffffffffffffffff1916149150506129c5565b600190505b949350505050565b606060405180602001604052806000815250905090565b60606129ef8261165a565b60006129f96129cd565b90506000815111612a195760405180602001604052806000815250612a44565b80612a2384613129565b604051602001612a34929190614f38565b6040516020818303038152906040525b915050919050565b60007f780e9d63000000000000000000000000000000000000000000000000000000007bffffffffffffffffffffffffffffffffffffffffffffffffffffffff1916827bffffffffffffffffffffffffffffffffffffffffffffffffffffffff19161480612abf5750612abe82613201565b5b9050919050565b612ad2848484846132e3565b6001811115612b16576040517f08c379a0000000000000000000000000000000000000000000000000000000008152600401612b0d90615215565b60405180910390fd5b6000829050600073ffffffffffffffffffffffffffffffffffffffff168573ffffffffffffffffffffffffffffffffffffffff161415612b5e57612b59816132e9565b612b9d565b8373ffffffffffffffffffffffffffffffffffffffff168573ffffffffffffffffffffffffffffffffffffffff1614612b9c57612b9b8582613332565b5b5b600073ffffffffffffffffffffffffffffffffffffffff168473ffffffffffffffffffffffffffffffffffffffff161415612be057612bdb8161349f565b612c1f565b8473ffffffffffffffffffffffffffffffffffffffff168473ffffffffffffffffffffffffffffffffffffffff1614612c1e57612c1d8482613570565b5b5b5050505050565b6060612c4c8273ffffffffffffffffffffffffffffffffffffffff16601460ff16612c53565b9050919050565b606060006002836002612c669190615264565b612c7091906152be565b67ffffffffffffffff811115612c8957612c88613d64565b5b6040519080825280601f01601f191660200182016040528015612cbb5781602001600182028036833780820191505090505b5090507f300000000000000000000000000000000000000000000000000000000000000081600081518110612cf357612cf2614891565b5b60200101907effffffffffffffffffffffffffffffffffffffffffffffffffffffffffffff1916908160001a9053507f780000000000000000000000000000000000000000000000000000000000000081600181518110612d5757612d56614891565b5b60200101907effffffffffffffffffffffffffffffffffffffffffffffffffffffffffffff1916908160001a90535060006001846002612d979190615264565b612da191906152be565b90505b6001811115612e41577f3031323334353637383961626364656600000000000000000000000000000000600f861660108110612de357612de2614891565b5b1a60f81b828281518110612dfa57612df9614891565b5b60200101907effffffffffffffffffffffffffffffffffffffffffffffffffffffffffffff1916908160001a905350600485901c945080612e3a90615314565b9050612da4565b5060008414612e85576040517f08c379a0000000000000000000000000000000000000000000000000000000008152600401612e7c9061538a565b60405180910390fd5b8091505092915050565b600073ffffffffffffffffffffffffffffffffffffffff168273ffffffffffffffffffffffffffffffffffffffff161415612eff576040517f08c379a0000000000000000000000000000000000000000000000000000000008152600401612ef6906153f6565b60405180910390fd5b612f0881612519565b15612f48576040517f08c379a0000000000000000000000000000000000000000000000000000000008152600401612f3f90615462565b60405180910390fd5b612f5660008383600161255a565b612f5f81612519565b15612f9f576040517f08c379a0000000000000000000000000000000000000000000000000000000008152600401612f9690615462565b60405180910390fd5b6001606860008473ffffffffffffffffffffffffffffffffffffffff1673ffffffffffffffffffffffffffffffffffffffff16815260200190815260200160002060008282540192505081905550816067600083815260200190815260200160002060006101000a81548173ffffffffffffffffffffffffffffffffffffffff021916908373ffffffffffffffffffffffffffffffffffffffff160217905550808273ffffffffffffffffffffffffffffffffffffffff16600073ffffffffffffffffffffffffffffffffffffffff167fddf252ad1be2c89b69c2b068fc378daa952ba7f163c4a11628f55a4df523b3ef60405160405180910390a46130a96000838360016125d6565b5050565b6130b6816126d0565b8073ffffffffffffffffffffffffffffffffffffffff167fbc7cd75a20ee27fd9adebab32041f755214dbc6bffa90cc0225b39da2e5c2d3b60405160405180910390a250565b606061312183836040518060600160405280602781526020016155d4602791396135ef565b905092915050565b60606000600161313884613675565b01905060008167ffffffffffffffff81111561315757613156613d64565b5b6040519080825280601f01601f1916602001820160405280156131895781602001600182028036833780820191505090505b509050600082602001820190505b6001156131f6578080600190039150507f3031323334353637383961626364656600000000000000000000000000000000600a86061a8153600a85816131e0576131df615482565b5b04945060008514156131f1576131f6565b613197565b819350505050919050565b60007f80ac58cd000000000000000000000000000000000000000000000000000000007bffffffffffffffffffffffffffffffffffffffffffffffffffffffff1916827bffffffffffffffffffffffffffffffffffffffffffffffffffffffff191614806132cc57507f5b5e139f000000000000000000000000000000000000000000000000000000007bffffffffffffffffffffffffffffffffffffffffffffffffffffffff1916827bffffffffffffffffffffffffffffffffffffffffffffffffffffffff1916145b806132dc57506132db826137c8565b5b9050919050565b50505050565b609980549050609a600083815260200190815260200160002081905550609981908060018154018082558091505060019003906000526020600020016000909190919091505550565b6000600161333f84611279565b61334991906154b1565b905060006098600084815260200190815260200160002054905081811461342e576000609760008673ffffffffffffffffffffffffffffffffffffffff1673ffffffffffffffffffffffffffffffffffffffff168152602001908152602001600020600084815260200190815260200160002054905080609760008773ffffffffffffffffffffffffffffffffffffffff1673ffffffffffffffffffffffffffffffffffffffff168152602001908152602001600020600084815260200190815260200160002081905550816098600083815260200190815260200160002081905550505b6098600084815260200190815260200160002060009055609760008573ffffffffffffffffffffffffffffffffffffffff1673ffffffffffffffffffffffffffffffffffffffff16815260200190815260200160002060008381526020019081526020016000206000905550505050565b600060016099805490506134b391906154b1565b90506000609a60008481526020019081526020016000205490506000609983815481106134e3576134e2614891565b5b90600052602060002001549050806099838154811061350557613504614891565b5b906000526020600020018190555081609a600083815260200190815260200160002081905550609a6000858152602001908152602001600020600090556099805480613554576135536154e5565b5b6001900381819060005260206000200160009055905550505050565b600061357b83611279565b905081609760008573ffffffffffffffffffffffffffffffffffffffff1673ffffffffffffffffffffffffffffffffffffffff168152602001908152602001600020600083815260200190815260200160002081905550806098600084815260200190815260200160002081905550505050565b60606000808573ffffffffffffffffffffffffffffffffffffffff16856040516136199190615550565b600060405180830381855af49150503d8060008114613654576040519150601f19603f3d011682016040523d82523d6000602084013e613659565b606091505b509150915061366a86838387613832565b925050509392505050565b600080600090507a184f03e93ff9f4daa797ed6e38ed64bf6a1f01000000000000000083106136d3577a184f03e93ff9f4daa797ed6e38ed64bf6a1f01000000000000000083816136c9576136c8615482565b5b0492506040810190505b6d04ee2d6d415b85acef81000000008310613710576d04ee2d6d415b85acef8100000000838161370657613705615482565b5b0492506020810190505b662386f26fc10000831061373f57662386f26fc10000838161373557613734615482565b5b0492506010810190505b6305f5e1008310613768576305f5e100838161375e5761375d615482565b5b0492506008810190505b612710831061378d57612710838161378357613782615482565b5b0492506004810190505b606483106137b057606483816137a6576137a5615482565b5b0492506002810190505b600a83106137bf576001810190505b80915050919050565b60007f01ffc9a7000000000000000000000000000000000000000000000000000000007bffffffffffffffffffffffffffffffffffffffffffffffffffffffff1916827bffffffffffffffffffffffffffffffffffffffffffffffffffffffff1916149050919050565b606083156138955760008351141561388d5761384d85611fdb565b61388c576040517f08c379a0000000000000000000000000000000000000000000000000000000008152600401613883906155b3565b60405180910390fd5b5b8290506138a0565b61389f83836138a8565b5b949350505050565b6000825111156138bb5781518083602001fd5b806040517f08c379a00000000000000000000000000000000000000000000000000000000081526004016138ef9190613b03565b60405180910390fd5b8280546139049061423e565b90600052602060002090601f016020900481019282613926576000855561396d565b82601f1061393f57805160ff191683800117855561396d565b8280016001018555821561396d579182015b8281111561396c578251825591602001919060010190613951565b5b50905061397a919061397e565b5090565b5b8082111561399757600081600090555060010161397f565b5090565b6000604051905090565b600080fd5b600080fd5b60007fffffffff0000000000000000000000000000000000000000000000000000000082169050919050565b6139e4816139af565b81146139ef57600080fd5b50565b600081359050613a01816139db565b92915050565b600060208284031215613a1d57613a1c6139a5565b5b6000613a2b848285016139f2565b91505092915050565b60008115159050919050565b613a4981613a34565b82525050565b6000602082019050613a646000830184613a40565b92915050565b600081519050919050565b600082825260208201905092915050565b60005b83811015613aa4578082015181840152602081019050613a89565b83811115613ab3576000848401525b50505050565b6000601f19601f8301169050919050565b6000613ad582613a6a565b613adf8185613a75565b9350613aef818560208601613a86565b613af881613ab9565b840191505092915050565b60006020820190508181036000830152613b1d8184613aca565b905092915050565b6000819050919050565b613b3881613b25565b8114613b4357600080fd5b50565b600081359050613b5581613b2f565b92915050565b600060208284031215613b7157613b706139a5565b5b6000613b7f84828501613b46565b91505092915050565b600073ffffffffffffffffffffffffffffffffffffffff82169050919050565b6000613bb382613b88565b9050919050565b613bc381613ba8565b82525050565b6000602082019050613bde6000830184613bba565b92915050565b613bed81613ba8565b8114613bf857600080fd5b50565b600081359050613c0a81613be4565b92915050565b60008060408385031215613c2757613c266139a5565b5b6000613c3585828601613bfb565b9250506020613c4685828601613b46565b9150509250929050565b613c5981613b25565b82525050565b6000602082019050613c746000830184613c50565b92915050565b600080600060608486031215613c9357613c926139a5565b5b6000613ca186828701613bfb565b9350506020613cb286828701613bfb565b9250506040613cc386828701613b46565b9150509250925092565b6000819050919050565b613ce081613ccd565b8114613ceb57600080fd5b50565b600081359050613cfd81613cd7565b92915050565b600060208284031215613d1957613d186139a5565b5b6000613d2784828501613cee565b91505092915050565b613d3981613ccd565b82525050565b6000602082019050613d546000830184613d30565b92915050565b600080fd5b600080fd5b7f4e487b7100000000000000000000000000000000000000000000000000000000600052604160045260246000fd5b613d9c82613ab9565b810181811067ffffffffffffffff82111715613dbb57613dba613d64565b5b80604052505050565b6000613dce61399b565b9050613dda8282613d93565b919050565b600067ffffffffffffffff821115613dfa57613df9613d64565b5b613e0382613ab9565b9050602081019050919050565b82818337600083830152505050565b6000613e32613e2d84613ddf565b613dc4565b905082815260208101848484011115613e4e57613e4d613d5f565b5b613e59848285613e10565b509392505050565b600082601f830112613e7657613e75613d5a565b5b8135613e86848260208601613e1f565b91505092915050565b613e9881613a34565b8114613ea357600080fd5b50565b600081359050613eb581613e8f565b92915050565b600080600060608486031215613ed457613ed36139a5565b5b6000613ee286828701613bfb565b935050602084013567ffffffffffffffff811115613f0357613f026139aa565b5b613f0f86828701613e61565b9250506040613f2086828701613ea6565b9150509250925092565b60008060408385031215613f4157613f406139a5565b5b6000613f4f85828601613cee565b9250506020613f6085828601613bfb565b9150509250929050565b600060208284031215613f8057613f7f6139a5565b5b6000613f8e84828501613bfb565b91505092915050565b60008060408385031215613fae57613fad6139a5565b5b600083013567ffffffffffffffff811115613fcc57613fcb6139aa565b5b613fd885828601613e61565b925050602083013567ffffffffffffffff811115613ff957613ff86139aa565b5b61400585828601613e61565b9150509250929050565b600067ffffffffffffffff82111561402a57614029613d64565b5b61403382613ab9565b9050602081019050919050565b600061405361404e8461400f565b613dc4565b90508281526020810184848401111561406f5761406e613d5f565b5b61407a848285613e10565b509392505050565b600082601f83011261409757614096613d5a565b5b81356140a7848260208601614040565b91505092915050565b600080604083850312156140c7576140c66139a5565b5b60006140d585828601613bfb565b925050602083013567ffffffffffffffff8111156140f6576140f56139aa565b5b61410285828601614082565b9150509250929050565b60008060408385031215614123576141226139a5565b5b600061413185828601613bfb565b925050602061414285828601613ea6565b9150509250929050565b60008060008060808587031215614166576141656139a5565b5b600061417487828801613bfb565b945050602061418587828801613bfb565b935050604061419687828801613b46565b925050606085013567ffffffffffffffff8111156141b7576141b66139aa565b5b6141c387828801614082565b91505092959194509250565b600080604083850312156141e6576141e56139a5565b5b60006141f485828601613bfb565b925050602061420585828601613bfb565b9150509250929050565b7f4e487b7100000000000000000000000000000000000000000000000000000000600052602260045260246000fd5b6000600282049050600182168061425657607f821691505b6020821081141561426a5761426961420f565b5b50919050565b7f4552433732313a20617070726f76616c20746f2063757272656e74206f776e6560008201527f7200000000000000000000000000000000000000000000000000000000000000602082015250565b60006142cc602183613a75565b91506142d782614270565b604082019050919050565b600060208201905081810360008301526142fb816142bf565b9050919050565b7f4552433732313a20617070726f76652063616c6c6572206973206e6f7420746f60008201527f6b656e206f776e6572206f7220617070726f76656420666f7220616c6c000000602082015250565b600061435e603d83613a75565b915061436982614302565b604082019050919050565b6000602082019050818103600083015261438d81614351565b9050919050565b7f4552433732313a2063616c6c6572206973206e6f7420746f6b656e206f776e6560008201527f72206f7220617070726f76656400000000000000000000000000000000000000602082015250565b60006143f0602d83613a75565b91506143fb82614394565b604082019050919050565b6000602082019050818103600083015261441f816143e3565b9050919050565b7f455243373231456e756d657261626c653a206f776e657220696e646578206f7560008201527f74206f6620626f756e6473000000000000000000000000000000000000000000602082015250565b6000614482602b83613a75565b915061448d82614426565b604082019050919050565b600060208201905081810360008301526144b181614475565b9050919050565b7f416363657373436f6e74726f6c3a2063616e206f6e6c792072656e6f756e636560008201527f20726f6c657320666f722073656c660000000000000000000000000000000000602082015250565b6000614514602f83613a75565b915061451f826144b8565b604082019050919050565b6000602082019050818103600083015261454381614507565b9050919050565b7f46756e6374696f6e206d7573742062652063616c6c6564207468726f7567682060008201527f64656c656761746563616c6c0000000000000000000000000000000000000000602082015250565b60006145a6602c83613a75565b91506145b18261454a565b604082019050919050565b600060208201905081810360008301526145d581614599565b9050919050565b7f46756e6374696f6e206d7573742062652063616c6c6564207468726f7567682060008201527f6163746976652070726f78790000000000000000000000000000000000000000602082015250565b6000614638602c83613a75565b9150614643826145dc565b604082019050919050565b600060208201905081810360008301526146678161462b565b9050919050565b7f4469676974616c42616467653a20546f6b656e204e6f2073652070756564652060008201527f7472616e73666572697200000000000000000000000000000000000000000000602082015250565b60006146ca602a83613a75565b91506146d58261466e565b604082019050919050565b600060208201905081810360008301526146f9816146bd565b9050919050565b7f496e697469616c697a61626c653a20636f6e747261637420697320616c72656160008201527f647920696e697469616c697a6564000000000000000000000000000000000000602082015250565b600061475c602e83613a75565b915061476782614700565b604082019050919050565b6000602082019050818103600083015261478b8161474f565b9050919050565b6000819050919050565b600060ff82169050919050565b6000819050919050565b60006147ce6147c96147c484614792565b6147a9565b61479c565b9050919050565b6147de816147b3565b82525050565b60006020820190506147f960008301846147d5565b92915050565b7f455243373231456e756d657261626c653a20676c6f62616c20696e646578206f60008201527f7574206f6620626f756e64730000000000000000000000000000000000000000602082015250565b600061485b602c83613a75565b9150614866826147ff565b604082019050919050565b6000602082019050818103600083015261488a8161484e565b9050919050565b7f4e487b7100000000000000000000000000000000000000000000000000000000600052603260045260246000fd5b7f555550535570677261646561626c653a206d757374206e6f742062652063616c60008201527f6c6564207468726f7567682064656c656761746563616c6c0000000000000000602082015250565b600061491c603883613a75565b9150614927826148c0565b604082019050919050565b6000602082019050818103600083015261494b8161490f565b9050919050565b7f4552433732313a20696e76616c696420746f6b656e2049440000000000000000600082015250565b6000614988601883613a75565b915061499382614952565b602082019050919050565b600060208201905081810360008301526149b78161497b565b9050919050565b7f4552433732313a2061646472657373207a65726f206973206e6f74206120766160008201527f6c6964206f776e65720000000000000000000000000000000000000000000000602082015250565b6000614a1a602983613a75565b9150614a25826149be565b604082019050919050565b60006020820190508181036000830152614a4981614a0d565b9050919050565b7f4552433732313a207472616e736665722066726f6d20696e636f72726563742060008201527f6f776e6572000000000000000000000000000000000000000000000000000000602082015250565b6000614aac602583613a75565b9150614ab782614a50565b604082019050919050565b60006020820190508181036000830152614adb81614a9f565b9050919050565b7f4552433732313a207472616e7366657220746f20746865207a65726f2061646460008201527f7265737300000000000000000000000000000000000000000000000000000000602082015250565b6000614b3e602483613a75565b9150614b4982614ae2565b604082019050919050565b60006020820190508181036000830152614b6d81614b31565b9050919050565b7f45524337323155524953746f726167653a2055524920736574206f66206e6f6e60008201527f6578697374656e7420746f6b656e000000000000000000000000000000000000602082015250565b6000614bd0602e83613a75565b9150614bdb82614b74565b604082019050919050565b60006020820190508181036000830152614bff81614bc3565b9050919050565b600081519050614c1581613cd7565b92915050565b600060208284031215614c3157614c306139a5565b5b6000614c3f84828501614c06565b91505092915050565b7f45524331393637557067726164653a206e657720696d706c656d656e7461746960008201527f6f6e206973206e6f742055555053000000000000000000000000000000000000602082015250565b6000614ca4602e83613a75565b9150614caf82614c48565b604082019050919050565b60006020820190508181036000830152614cd381614c97565b9050919050565b7f45524331393637557067726164653a20756e737570706f727465642070726f7860008201527f6961626c65555549440000000000000000000000000000000000000000000000602082015250565b6000614d36602983613a75565b9150614d4182614cda565b604082019050919050565b60006020820190508181036000830152614d6581614d29565b9050919050565b7f496e697469616c697a61626c653a20636f6e7472616374206973206e6f74206960008201527f6e697469616c697a696e67000000000000000000000000000000000000000000602082015250565b6000614dc8602b83613a75565b9150614dd382614d6c565b604082019050919050565b60006020820190508181036000830152614df781614dbb565b9050919050565b7f4552433732313a20617070726f766520746f2063616c6c657200000000000000600082015250565b6000614e34601983613a75565b9150614e3f82614dfe565b602082019050919050565b60006020820190508181036000830152614e6381614e27565b9050919050565b7f4552433732313a207472616e7366657220746f206e6f6e20455243373231526560008201527f63656976657220696d706c656d656e7465720000000000000000000000000000602082015250565b6000614ec6603283613a75565b9150614ed182614e6a565b604082019050919050565b60006020820190508181036000830152614ef581614eb9565b9050919050565b600081905092915050565b6000614f1282613a6a565b614f1c8185614efc565b9350614f2c818560208601613a86565b80840191505092915050565b6000614f448285614f07565b9150614f508284614f07565b91508190509392505050565b7f416363657373436f6e74726f6c3a206163636f756e7420000000000000000000600082015250565b6000614f92601783614efc565b9150614f9d82614f5c565b601782019050919050565b7f206973206d697373696e6720726f6c6520000000000000000000000000000000600082015250565b6000614fde601183614efc565b9150614fe982614fa8565b601182019050919050565b6000614fff82614f85565b915061500b8285614f07565b915061501682614fd1565b91506150228284614f07565b91508190509392505050565b7f455243313936373a206e657720696d706c656d656e746174696f6e206973206e60008201527f6f74206120636f6e747261637400000000000000000000000000000000000000602082015250565b600061508a602d83613a75565b91506150958261502e565b604082019050919050565b600060208201905081810360008301526150b98161507d565b9050919050565b600081519050919050565b600082825260208201905092915050565b60006150e7826150c0565b6150f181856150cb565b9350615101818560208601613a86565b61510a81613ab9565b840191505092915050565b600060808201905061512a6000830187613bba565b6151376020830186613bba565b6151446040830185613c50565b818103606083015261515681846150dc565b905095945050505050565b600081519050615170816139db565b92915050565b60006020828403121561518c5761518b6139a5565b5b600061519a84828501615161565b91505092915050565b7f455243373231456e756d657261626c653a20636f6e736563757469766520747260008201527f616e7366657273206e6f7420737570706f727465640000000000000000000000602082015250565b60006151ff603583613a75565b915061520a826151a3565b604082019050919050565b6000602082019050818103600083015261522e816151f2565b9050919050565b7f4e487b7100000000000000000000000000000000000000000000000000000000600052601160045260246000fd5b600061526f82613b25565b915061527a83613b25565b9250817fffffffffffffffffffffffffffffffffffffffffffffffffffffffffffffffff04831182151516156152b3576152b2615235565b5b828202905092915050565b60006152c982613b25565b91506152d483613b25565b9250827fffffffffffffffffffffffffffffffffffffffffffffffffffffffffffffffff0382111561530957615308615235565b5b828201905092915050565b600061531f82613b25565b9150600082141561533357615332615235565b5b600182039050919050565b7f537472696e67733a20686578206c656e67746820696e73756666696369656e74600082015250565b6000615374602083613a75565b915061537f8261533e565b602082019050919050565b600060208201905081810360008301526153a381615367565b9050919050565b7f4552433732313a206d696e7420746f20746865207a65726f2061646472657373600082015250565b60006153e0602083613a75565b91506153eb826153aa565b602082019050919050565b6000602082019050818103600083015261540f816153d3565b9050919050565b7f4552433732313a20746f6b656e20616c7265616479206d696e74656400000000600082015250565b600061544c601c83613a75565b915061545782615416565b602082019050919050565b6000602082019050818103600083015261547b8161543f565b9050919050565b7f4e487b7100000000000000000000000000000000000000000000000000000000600052601260045260246000fd5b60006154bc82613b25565b91506154c783613b25565b9250828210156154da576154d9615235565b5b828203905092915050565b7f4e487b7100000000000000000000000000000000000000000000000000000000600052603160045260246000fd5b600081905092915050565b600061552a826150c0565b6155348185615514565b9350615544818560208601613a86565b80840191505092915050565b600061555c828461551f565b915081905092915050565b7f416464726573733a2063616c6c20746f206e6f6e2d636f6e7472616374000000600082015250565b600061559d601d83613a75565b91506155a882615567565b602082019050919050565b600060208201905081810360008301526155cc81615590565b905091905056fe416464726573733a206c6f772d6c6576656c2064656c65676174652063616c6c206661696c6564a26469706673582212205c783f86f77dd046b97da3e69e73af92965caa77c5c11596405b558df3aec17364736f6c63430008090033",
  "linkReferences": {},
  "deployedLinkReferences": {}
}